{
  "contractName": "Land",
  "abi": [
    {
      "inputs": [],
      "payable": false,
      "stateMutability": "nonpayable",
      "type": "constructor"
    },
    {
      "anonymous": false,
      "inputs": [
        {
          "indexed": true,
          "internalType": "uint256",
          "name": "_landId",
          "type": "uint256"
        }
      ],
      "name": "AddingLand",
      "type": "event"
    },
    {
      "anonymous": false,
      "inputs": [
        {
          "indexed": false,
          "internalType": "address",
          "name": "_sellerId",
          "type": "address"
        }
      ],
      "name": "Landrequested",
      "type": "event"
    },
    {
      "anonymous": false,
      "inputs": [
        {
          "indexed": false,
          "internalType": "address",
          "name": "_registrationId",
          "type": "address"
        }
      ],
      "name": "Registration",
      "type": "event"
    },
    {
      "anonymous": false,
      "inputs": [
        {
          "indexed": false,
          "internalType": "address",
          "name": "_id",
          "type": "address"
        }
      ],
      "name": "Rejected",
      "type": "event"
    },
    {
      "anonymous": false,
      "inputs": [
        {
          "indexed": false,
          "internalType": "address",
          "name": "_id",
          "type": "address"
        }
      ],
      "name": "Verified",
      "type": "event"
    },
    {
      "anonymous": false,
      "inputs": [
        {
          "indexed": false,
          "internalType": "address",
          "name": "_buyerId",
          "type": "address"
        }
      ],
      "name": "requestApproved",
      "type": "event"
    },
    {
      "constant": true,
      "inputs": [
        {
          "internalType": "address",
          "name": "",
          "type": "address"
        }
      ],
      "name": "BuyerMapping",
      "outputs": [
        {
          "internalType": "address",
          "name": "id",
          "type": "address"
        },
        {
          "internalType": "string",
          "name": "name",
          "type": "string"
        },
        {
          "internalType": "uint256",
          "name": "age",
          "type": "uint256"
        },
        {
          "internalType": "string",
          "name": "city",
          "type": "string"
        },
        {
          "internalType": "string",
          "name": "aadharNumber",
          "type": "string"
        },
        {
          "internalType": "string",
          "name": "panNumber",
          "type": "string"
        },
        {
          "internalType": "string",
          "name": "document",
          "type": "string"
        },
        {
          "internalType": "string",
          "name": "email",
          "type": "string"
        }
      ],
      "payable": false,
      "stateMutability": "view",
      "type": "function"
    },
    {
      "constant": true,
      "inputs": [
        {
          "internalType": "address",
          "name": "",
          "type": "address"
        }
      ],
      "name": "BuyerRejection",
      "outputs": [
        {
          "internalType": "bool",
          "name": "",
          "type": "bool"
        }
      ],
      "payable": false,
      "stateMutability": "view",
      "type": "function"
    },
    {
      "constant": true,
      "inputs": [
        {
          "internalType": "address",
          "name": "",
          "type": "address"
        }
      ],
      "name": "BuyerVerification",
      "outputs": [
        {
          "internalType": "bool",
          "name": "",
          "type": "bool"
        }
      ],
      "payable": false,
      "stateMutability": "view",
      "type": "function"
    },
    {
      "constant": true,
      "inputs": [
        {
          "internalType": "uint256",
          "name": "",
          "type": "uint256"
        }
      ],
      "name": "InspectorMapping",
      "outputs": [
        {
          "internalType": "uint256",
          "name": "id",
          "type": "uint256"
        },
        {
          "internalType": "string",
          "name": "name",
          "type": "string"
        },
        {
          "internalType": "uint256",
          "name": "age",
          "type": "uint256"
        },
        {
          "internalType": "string",
          "name": "designation",
          "type": "string"
        }
      ],
      "payable": false,
      "stateMutability": "view",
      "type": "function"
    },
    {
      "constant": true,
      "inputs": [
        {
          "internalType": "uint256",
          "name": "",
          "type": "uint256"
        }
      ],
      "name": "LandOwner",
      "outputs": [
        {
          "internalType": "address",
          "name": "",
          "type": "address"
        }
      ],
      "payable": false,
      "stateMutability": "view",
      "type": "function"
    },
    {
      "constant": true,
      "inputs": [
        {
          "internalType": "uint256",
          "name": "",
          "type": "uint256"
        }
      ],
      "name": "LandVerification",
      "outputs": [
        {
          "internalType": "bool",
          "name": "",
          "type": "bool"
        }
      ],
      "payable": false,
      "stateMutability": "view",
      "type": "function"
    },
    {
      "constant": true,
      "inputs": [],
      "name": "Land_Inspector",
      "outputs": [
        {
          "internalType": "address",
          "name": "",
          "type": "address"
        }
      ],
      "payable": false,
      "stateMutability": "view",
      "type": "function"
    },
    {
      "constant": true,
      "inputs": [
        {
          "internalType": "uint256",
          "name": "",
          "type": "uint256"
        }
      ],
      "name": "PaymentReceived",
      "outputs": [
        {
          "internalType": "bool",
          "name": "",
          "type": "bool"
        }
      ],
      "payable": false,
      "stateMutability": "view",
      "type": "function"
    },
    {
      "constant": true,
      "inputs": [
        {
          "internalType": "address",
          "name": "",
          "type": "address"
        }
      ],
      "name": "RegisteredAddressMapping",
      "outputs": [
        {
          "internalType": "bool",
          "name": "",
          "type": "bool"
        }
      ],
      "payable": false,
      "stateMutability": "view",
      "type": "function"
    },
    {
      "constant": true,
      "inputs": [
        {
          "internalType": "address",
          "name": "",
          "type": "address"
        }
      ],
      "name": "RegisteredBuyerMapping",
      "outputs": [
        {
          "internalType": "bool",
          "name": "",
          "type": "bool"
        }
      ],
      "payable": false,
      "stateMutability": "view",
      "type": "function"
    },
    {
      "constant": true,
      "inputs": [
        {
          "internalType": "address",
          "name": "",
          "type": "address"
        }
      ],
      "name": "RegisteredSellerMapping",
      "outputs": [
        {
          "internalType": "bool",
          "name": "",
          "type": "bool"
        }
      ],
      "payable": false,
      "stateMutability": "view",
      "type": "function"
    },
    {
      "constant": true,
      "inputs": [
        {
          "internalType": "uint256",
          "name": "",
          "type": "uint256"
        }
      ],
      "name": "RequestStatus",
      "outputs": [
        {
          "internalType": "bool",
          "name": "",
          "type": "bool"
        }
      ],
      "payable": false,
      "stateMutability": "view",
      "type": "function"
    },
    {
      "constant": true,
      "inputs": [
        {
          "internalType": "uint256",
          "name": "",
          "type": "uint256"
        }
      ],
      "name": "RequestedLands",
      "outputs": [
        {
          "internalType": "bool",
          "name": "",
          "type": "bool"
        }
      ],
      "payable": false,
      "stateMutability": "view",
      "type": "function"
    },
    {
      "constant": true,
      "inputs": [
        {
          "internalType": "uint256",
          "name": "",
          "type": "uint256"
        }
      ],
      "name": "RequestsMapping",
      "outputs": [
        {
          "internalType": "uint256",
          "name": "reqId",
          "type": "uint256"
        },
        {
          "internalType": "address",
          "name": "sellerId",
          "type": "address"
        },
        {
          "internalType": "address",
          "name": "buyerId",
          "type": "address"
        },
        {
          "internalType": "uint256",
          "name": "landId",
          "type": "uint256"
        }
      ],
      "payable": false,
      "stateMutability": "view",
      "type": "function"
    },
    {
      "constant": true,
      "inputs": [
        {
          "internalType": "address",
          "name": "",
          "type": "address"
        }
      ],
      "name": "SellerMapping",
      "outputs": [
        {
          "internalType": "address",
          "name": "id",
          "type": "address"
        },
        {
          "internalType": "string",
          "name": "name",
          "type": "string"
        },
        {
          "internalType": "uint256",
          "name": "age",
          "type": "uint256"
        },
        {
          "internalType": "string",
          "name": "aadharNumber",
          "type": "string"
        },
        {
          "internalType": "string",
          "name": "panNumber",
          "type": "string"
        },
        {
          "internalType": "string",
          "name": "landsOwned",
          "type": "string"
        },
        {
          "internalType": "string",
          "name": "document",
          "type": "string"
        }
      ],
      "payable": false,
      "stateMutability": "view",
      "type": "function"
    },
    {
      "constant": true,
      "inputs": [
        {
          "internalType": "address",
          "name": "",
          "type": "address"
        }
      ],
      "name": "SellerRejection",
      "outputs": [
        {
          "internalType": "bool",
          "name": "",
          "type": "bool"
        }
      ],
      "payable": false,
      "stateMutability": "view",
      "type": "function"
    },
    {
      "constant": true,
      "inputs": [
        {
          "internalType": "address",
          "name": "",
          "type": "address"
        }
      ],
      "name": "SellerVerification",
      "outputs": [
        {
          "internalType": "bool",
          "name": "",
          "type": "bool"
        }
      ],
      "payable": false,
      "stateMutability": "view",
      "type": "function"
    },
    {
      "constant": true,
      "inputs": [
        {
          "internalType": "uint256",
          "name": "",
          "type": "uint256"
        }
      ],
      "name": "buyers",
      "outputs": [
        {
          "internalType": "address",
          "name": "",
          "type": "address"
        }
      ],
      "payable": false,
      "stateMutability": "view",
      "type": "function"
    },
    {
      "constant": true,
      "inputs": [],
      "name": "buyersCount",
      "outputs": [
        {
          "internalType": "uint256",
          "name": "",
          "type": "uint256"
        }
      ],
      "payable": false,
      "stateMutability": "view",
      "type": "function"
    },
    {
      "constant": true,
      "inputs": [],
      "name": "inspectorsCount",
      "outputs": [
        {
          "internalType": "uint256",
          "name": "",
          "type": "uint256"
        }
      ],
      "payable": false,
      "stateMutability": "view",
      "type": "function"
    },
    {
      "constant": true,
      "inputs": [
        {
          "internalType": "uint256",
          "name": "",
          "type": "uint256"
        }
      ],
      "name": "lands",
      "outputs": [
        {
          "internalType": "uint256",
          "name": "id",
          "type": "uint256"
        },
        {
          "internalType": "uint256",
          "name": "area",
          "type": "uint256"
        },
        {
          "internalType": "string",
          "name": "city",
          "type": "string"
        },
        {
          "internalType": "string",
          "name": "state",
          "type": "string"
        },
        {
          "internalType": "uint256",
          "name": "landPrice",
          "type": "uint256"
        },
        {
          "internalType": "uint256",
          "name": "propertyPID",
          "type": "uint256"
        },
        {
          "internalType": "uint256",
          "name": "physicalSurveyNumber",
          "type": "uint256"
        },
        {
          "internalType": "string",
          "name": "ipfsHash",
          "type": "string"
        },
        {
          "internalType": "string",
          "name": "document",
          "type": "string"
        }
      ],
      "payable": false,
      "stateMutability": "view",
      "type": "function"
    },
    {
      "constant": true,
      "inputs": [],
      "name": "landsCount",
      "outputs": [
        {
          "internalType": "uint256",
          "name": "",
          "type": "uint256"
        }
      ],
      "payable": false,
      "stateMutability": "view",
      "type": "function"
    },
    {
      "constant": true,
      "inputs": [],
      "name": "requestsCount",
      "outputs": [
        {
          "internalType": "uint256",
          "name": "",
          "type": "uint256"
        }
      ],
      "payable": false,
      "stateMutability": "view",
      "type": "function"
    },
    {
      "constant": true,
      "inputs": [
        {
          "internalType": "uint256",
          "name": "",
          "type": "uint256"
        }
      ],
      "name": "sellers",
      "outputs": [
        {
          "internalType": "address",
          "name": "",
          "type": "address"
        }
      ],
      "payable": false,
      "stateMutability": "view",
      "type": "function"
    },
    {
      "constant": true,
      "inputs": [],
      "name": "sellersCount",
      "outputs": [
        {
          "internalType": "uint256",
          "name": "",
          "type": "uint256"
        }
      ],
      "payable": false,
      "stateMutability": "view",
      "type": "function"
    },
    {
      "constant": true,
      "inputs": [],
      "name": "getLandsCount",
      "outputs": [
        {
          "internalType": "uint256",
          "name": "",
          "type": "uint256"
        }
      ],
      "payable": false,
      "stateMutability": "view",
      "type": "function"
    },
    {
      "constant": true,
      "inputs": [],
      "name": "getBuyersCount",
      "outputs": [
        {
          "internalType": "uint256",
          "name": "",
          "type": "uint256"
        }
      ],
      "payable": false,
      "stateMutability": "view",
      "type": "function"
    },
    {
      "constant": true,
      "inputs": [],
      "name": "getSellersCount",
      "outputs": [
        {
          "internalType": "uint256",
          "name": "",
          "type": "uint256"
        }
      ],
      "payable": false,
      "stateMutability": "view",
      "type": "function"
    },
    {
      "constant": true,
      "inputs": [],
      "name": "getRequestsCount",
      "outputs": [
        {
          "internalType": "uint256",
          "name": "",
          "type": "uint256"
        }
      ],
      "payable": false,
      "stateMutability": "view",
      "type": "function"
    },
    {
      "constant": true,
      "inputs": [
        {
          "internalType": "uint256",
          "name": "i",
          "type": "uint256"
        }
      ],
      "name": "getArea",
      "outputs": [
        {
          "internalType": "uint256",
          "name": "",
          "type": "uint256"
        }
      ],
      "payable": false,
      "stateMutability": "view",
      "type": "function"
    },
    {
      "constant": true,
      "inputs": [
        {
          "internalType": "uint256",
          "name": "i",
          "type": "uint256"
        }
      ],
      "name": "getCity",
      "outputs": [
        {
          "internalType": "string",
          "name": "",
          "type": "string"
        }
      ],
      "payable": false,
      "stateMutability": "view",
      "type": "function"
    },
    {
      "constant": true,
      "inputs": [
        {
          "internalType": "uint256",
          "name": "i",
          "type": "uint256"
        }
      ],
      "name": "getState",
      "outputs": [
        {
          "internalType": "string",
          "name": "",
          "type": "string"
        }
      ],
      "payable": false,
      "stateMutability": "view",
      "type": "function"
    },
    {
      "constant": true,
      "inputs": [
        {
          "internalType": "uint256",
          "name": "i",
          "type": "uint256"
        }
      ],
      "name": "getPrice",
      "outputs": [
        {
          "internalType": "uint256",
          "name": "",
          "type": "uint256"
        }
      ],
      "payable": false,
      "stateMutability": "view",
      "type": "function"
    },
    {
      "constant": true,
      "inputs": [
        {
          "internalType": "uint256",
          "name": "i",
          "type": "uint256"
        }
      ],
      "name": "getPID",
      "outputs": [
        {
          "internalType": "uint256",
          "name": "",
          "type": "uint256"
        }
      ],
      "payable": false,
      "stateMutability": "view",
      "type": "function"
    },
    {
      "constant": true,
      "inputs": [
        {
          "internalType": "uint256",
          "name": "i",
          "type": "uint256"
        }
      ],
      "name": "getSurveyNumber",
      "outputs": [
        {
          "internalType": "uint256",
          "name": "",
          "type": "uint256"
        }
      ],
      "payable": false,
      "stateMutability": "view",
      "type": "function"
    },
    {
      "constant": true,
      "inputs": [
        {
          "internalType": "uint256",
          "name": "i",
          "type": "uint256"
        }
      ],
      "name": "getImage",
      "outputs": [
        {
          "internalType": "string",
          "name": "",
          "type": "string"
        }
      ],
      "payable": false,
      "stateMutability": "view",
      "type": "function"
    },
    {
      "constant": true,
      "inputs": [
        {
          "internalType": "uint256",
          "name": "i",
          "type": "uint256"
        }
      ],
      "name": "getDocument",
      "outputs": [
        {
          "internalType": "string",
          "name": "",
          "type": "string"
        }
      ],
      "payable": false,
      "stateMutability": "view",
      "type": "function"
    },
    {
      "constant": true,
      "inputs": [
        {
          "internalType": "uint256",
          "name": "id",
          "type": "uint256"
        }
      ],
      "name": "getLandOwner",
      "outputs": [
        {
          "internalType": "address",
          "name": "",
          "type": "address"
        }
      ],
      "payable": false,
      "stateMutability": "view",
      "type": "function"
    },
    {
      "constant": false,
      "inputs": [
        {
          "internalType": "address",
          "name": "_sellerId",
          "type": "address"
        }
      ],
      "name": "verifySeller",
      "outputs": [],
      "payable": false,
      "stateMutability": "nonpayable",
      "type": "function"
    },
    {
      "constant": false,
      "inputs": [
        {
          "internalType": "address",
          "name": "_sellerId",
          "type": "address"
        }
      ],
      "name": "rejectSeller",
      "outputs": [],
      "payable": false,
      "stateMutability": "nonpayable",
      "type": "function"
    },
    {
      "constant": false,
      "inputs": [
        {
          "internalType": "address",
          "name": "_buyerId",
          "type": "address"
        }
      ],
      "name": "verifyBuyer",
      "outputs": [],
      "payable": false,
      "stateMutability": "nonpayable",
      "type": "function"
    },
    {
      "constant": false,
      "inputs": [
        {
          "internalType": "address",
          "name": "_buyerId",
          "type": "address"
        }
      ],
      "name": "rejectBuyer",
      "outputs": [],
      "payable": false,
      "stateMutability": "nonpayable",
      "type": "function"
    },
    {
      "constant": false,
      "inputs": [
        {
          "internalType": "uint256",
          "name": "_landId",
          "type": "uint256"
        }
      ],
      "name": "verifyLand",
      "outputs": [],
      "payable": false,
      "stateMutability": "nonpayable",
      "type": "function"
    },
    {
      "constant": true,
      "inputs": [
        {
          "internalType": "uint256",
          "name": "_id",
          "type": "uint256"
        }
      ],
      "name": "isLandVerified",
      "outputs": [
        {
          "internalType": "bool",
          "name": "",
          "type": "bool"
        }
      ],
      "payable": false,
      "stateMutability": "view",
      "type": "function"
    },
    {
      "constant": true,
      "inputs": [
        {
          "internalType": "address",
          "name": "_id",
          "type": "address"
        }
      ],
      "name": "isVerified",
      "outputs": [
        {
          "internalType": "bool",
          "name": "",
          "type": "bool"
        }
      ],
      "payable": false,
      "stateMutability": "view",
      "type": "function"
    },
    {
      "constant": true,
      "inputs": [
        {
          "internalType": "address",
          "name": "_id",
          "type": "address"
        }
      ],
      "name": "isRejected",
      "outputs": [
        {
          "internalType": "bool",
          "name": "",
          "type": "bool"
        }
      ],
      "payable": false,
      "stateMutability": "view",
      "type": "function"
    },
    {
      "constant": true,
      "inputs": [
        {
          "internalType": "address",
          "name": "_id",
          "type": "address"
        }
      ],
      "name": "isSeller",
      "outputs": [
        {
          "internalType": "bool",
          "name": "",
          "type": "bool"
        }
      ],
      "payable": false,
      "stateMutability": "view",
      "type": "function"
    },
    {
      "constant": true,
      "inputs": [
        {
          "internalType": "address",
          "name": "_id",
          "type": "address"
        }
      ],
      "name": "isLandInspector",
      "outputs": [
        {
          "internalType": "bool",
          "name": "",
          "type": "bool"
        }
      ],
      "payable": false,
      "stateMutability": "view",
      "type": "function"
    },
    {
      "constant": true,
      "inputs": [
        {
          "internalType": "address",
          "name": "_id",
          "type": "address"
        }
      ],
      "name": "isBuyer",
      "outputs": [
        {
          "internalType": "bool",
          "name": "",
          "type": "bool"
        }
      ],
      "payable": false,
      "stateMutability": "view",
      "type": "function"
    },
    {
      "constant": true,
      "inputs": [
        {
          "internalType": "address",
          "name": "_id",
          "type": "address"
        }
      ],
      "name": "isRegistered",
      "outputs": [
        {
          "internalType": "bool",
          "name": "",
          "type": "bool"
        }
      ],
      "payable": false,
      "stateMutability": "view",
      "type": "function"
    },
    {
      "constant": false,
      "inputs": [
        {
          "internalType": "uint256",
          "name": "_area",
          "type": "uint256"
        },
        {
          "internalType": "string",
          "name": "_city",
          "type": "string"
        },
        {
          "internalType": "string",
          "name": "_state",
          "type": "string"
        },
        {
          "internalType": "uint256",
          "name": "landPrice",
          "type": "uint256"
        },
        {
          "internalType": "uint256",
          "name": "_propertyPID",
          "type": "uint256"
        },
        {
          "internalType": "uint256",
          "name": "_surveyNum",
          "type": "uint256"
        },
        {
          "internalType": "string",
          "name": "_ipfsHash",
          "type": "string"
        },
        {
          "internalType": "string",
          "name": "_document",
          "type": "string"
        }
      ],
      "name": "addLand",
      "outputs": [],
      "payable": false,
      "stateMutability": "nonpayable",
      "type": "function"
    },
    {
      "constant": false,
      "inputs": [
        {
          "internalType": "string",
          "name": "_name",
          "type": "string"
        },
        {
          "internalType": "uint256",
          "name": "_age",
          "type": "uint256"
        },
        {
          "internalType": "string",
          "name": "_aadharNumber",
          "type": "string"
        },
        {
          "internalType": "string",
          "name": "_panNumber",
          "type": "string"
        },
        {
          "internalType": "string",
          "name": "_landsOwned",
          "type": "string"
        },
        {
          "internalType": "string",
          "name": "_document",
          "type": "string"
        }
      ],
      "name": "registerSeller",
      "outputs": [],
      "payable": false,
      "stateMutability": "nonpayable",
      "type": "function"
    },
    {
      "constant": false,
      "inputs": [
        {
          "internalType": "string",
          "name": "_name",
          "type": "string"
        },
        {
          "internalType": "uint256",
          "name": "_age",
          "type": "uint256"
        },
        {
          "internalType": "string",
          "name": "_aadharNumber",
          "type": "string"
        },
        {
          "internalType": "string",
          "name": "_panNumber",
          "type": "string"
        },
        {
          "internalType": "string",
          "name": "_landsOwned",
          "type": "string"
        }
      ],
      "name": "updateSeller",
      "outputs": [],
      "payable": false,
      "stateMutability": "nonpayable",
      "type": "function"
    },
    {
      "constant": true,
      "inputs": [],
      "name": "getSeller",
      "outputs": [
        {
          "internalType": "address[]",
          "name": "",
          "type": "address[]"
        }
      ],
      "payable": false,
      "stateMutability": "view",
      "type": "function"
    },
    {
      "constant": true,
      "inputs": [
        {
          "internalType": "address",
          "name": "i",
          "type": "address"
        }
      ],
      "name": "getSellerDetails",
      "outputs": [
        {
          "internalType": "string",
          "name": "",
          "type": "string"
        },
        {
          "internalType": "uint256",
          "name": "",
          "type": "uint256"
        },
        {
          "internalType": "string",
          "name": "",
          "type": "string"
        },
        {
          "internalType": "string",
          "name": "",
          "type": "string"
        },
        {
          "internalType": "string",
          "name": "",
          "type": "string"
        },
        {
          "internalType": "string",
          "name": "",
          "type": "string"
        }
      ],
      "payable": false,
      "stateMutability": "view",
      "type": "function"
    },
    {
      "constant": false,
      "inputs": [
        {
          "internalType": "string",
          "name": "_name",
          "type": "string"
        },
        {
          "internalType": "uint256",
          "name": "_age",
          "type": "uint256"
        },
        {
          "internalType": "string",
          "name": "_city",
          "type": "string"
        },
        {
          "internalType": "string",
          "name": "_aadharNumber",
          "type": "string"
        },
        {
          "internalType": "string",
          "name": "_panNumber",
          "type": "string"
        },
        {
          "internalType": "string",
          "name": "_document",
          "type": "string"
        },
        {
          "internalType": "string",
          "name": "_email",
          "type": "string"
        }
      ],
      "name": "registerBuyer",
      "outputs": [],
      "payable": false,
      "stateMutability": "nonpayable",
      "type": "function"
    },
    {
      "constant": false,
      "inputs": [
        {
          "internalType": "string",
          "name": "_name",
          "type": "string"
        },
        {
          "internalType": "uint256",
          "name": "_age",
          "type": "uint256"
        },
        {
          "internalType": "string",
          "name": "_city",
          "type": "string"
        },
        {
          "internalType": "string",
          "name": "_aadharNumber",
          "type": "string"
        },
        {
          "internalType": "string",
          "name": "_email",
          "type": "string"
        },
        {
          "internalType": "string",
          "name": "_panNumber",
          "type": "string"
        }
      ],
      "name": "updateBuyer",
      "outputs": [],
      "payable": false,
      "stateMutability": "nonpayable",
      "type": "function"
    },
    {
      "constant": true,
      "inputs": [],
      "name": "getBuyer",
      "outputs": [
        {
          "internalType": "address[]",
          "name": "",
          "type": "address[]"
        }
      ],
      "payable": false,
      "stateMutability": "view",
      "type": "function"
    },
    {
      "constant": true,
      "inputs": [
        {
          "internalType": "address",
          "name": "i",
          "type": "address"
        }
      ],
      "name": "getBuyerDetails",
      "outputs": [
        {
          "internalType": "string",
          "name": "",
          "type": "string"
        },
        {
          "internalType": "string",
          "name": "",
          "type": "string"
        },
        {
          "internalType": "string",
          "name": "",
          "type": "string"
        },
        {
          "internalType": "string",
          "name": "",
          "type": "string"
        },
        {
          "internalType": "string",
          "name": "",
          "type": "string"
        },
        {
          "internalType": "uint256",
          "name": "",
          "type": "uint256"
        },
        {
          "internalType": "string",
          "name": "",
          "type": "string"
        }
      ],
      "payable": false,
      "stateMutability": "view",
      "type": "function"
    },
    {
      "constant": false,
      "inputs": [
        {
          "internalType": "address",
          "name": "_sellerId",
          "type": "address"
        },
        {
          "internalType": "uint256",
          "name": "_landId",
          "type": "uint256"
        }
      ],
      "name": "requestLand",
      "outputs": [],
      "payable": false,
      "stateMutability": "nonpayable",
      "type": "function"
    },
    {
      "constant": true,
      "inputs": [
        {
          "internalType": "uint256",
          "name": "i",
          "type": "uint256"
        }
      ],
      "name": "getRequestDetails",
      "outputs": [
        {
          "internalType": "address",
          "name": "",
          "type": "address"
        },
        {
          "internalType": "address",
          "name": "",
          "type": "address"
        },
        {
          "internalType": "uint256",
          "name": "",
          "type": "uint256"
        },
        {
          "internalType": "bool",
          "name": "",
          "type": "bool"
        }
      ],
      "payable": false,
      "stateMutability": "view",
      "type": "function"
    },
    {
      "constant": true,
      "inputs": [
        {
          "internalType": "uint256",
          "name": "_id",
          "type": "uint256"
        }
      ],
      "name": "isRequested",
      "outputs": [
        {
          "internalType": "bool",
          "name": "",
          "type": "bool"
        }
      ],
      "payable": false,
      "stateMutability": "view",
      "type": "function"
    },
    {
      "constant": true,
      "inputs": [
        {
          "internalType": "uint256",
          "name": "_id",
          "type": "uint256"
        }
      ],
      "name": "isApproved",
      "outputs": [
        {
          "internalType": "bool",
          "name": "",
          "type": "bool"
        }
      ],
      "payable": false,
      "stateMutability": "view",
      "type": "function"
    },
    {
      "constant": false,
      "inputs": [
        {
          "internalType": "uint256",
          "name": "_reqId",
          "type": "uint256"
        }
      ],
      "name": "approveRequest",
      "outputs": [],
      "payable": false,
      "stateMutability": "nonpayable",
      "type": "function"
    },
    {
      "constant": false,
      "inputs": [
        {
          "internalType": "uint256",
          "name": "_landId",
          "type": "uint256"
        },
        {
          "internalType": "address",
          "name": "_newOwner",
          "type": "address"
        }
      ],
      "name": "LandOwnershipTransfer",
      "outputs": [],
      "payable": false,
      "stateMutability": "nonpayable",
      "type": "function"
    },
    {
      "constant": true,
      "inputs": [
        {
          "internalType": "uint256",
          "name": "_landId",
          "type": "uint256"
        }
      ],
      "name": "isPaid",
      "outputs": [
        {
          "internalType": "bool",
          "name": "",
          "type": "bool"
        }
      ],
      "payable": false,
      "stateMutability": "view",
      "type": "function"
    },
    {
      "constant": false,
      "inputs": [
        {
          "internalType": "address payable",
          "name": "_receiver",
          "type": "address"
        },
        {
          "internalType": "uint256",
          "name": "_landId",
          "type": "uint256"
        }
      ],
      "name": "payment",
      "outputs": [],
      "payable": true,
      "stateMutability": "payable",
      "type": "function"
    }
  ],
  "bytecode": "0x60806040523480156200001157600080fd5b5060118054600160a060020a03191633179055604080518082018252600b81527f496e73706563746f7220310000000000000000000000000000000000000000006020808301919091528251808401909352600e83527f54656873696c204d616e6167657200000000000000000000000000000000000090830152620000a391602d90640100000000620000a9810204565b620001d7565b601580546001908101918290556040805160808101825283815260208082018881528284018890526060830187905260009586528482529290942081518155915180519194929362000102939085019291019062000132565b5060408201516002820155606082015180516200012a91600384019160209091019062000132565b505050505050565b828054600181600116156101000203166002900490600052602060002090601f016020900481019282601f106200017557805160ff1916838001178555620001a5565b82800160010185558215620001a5579182015b82811115620001a557825182559160200191906001019062000188565b50620001b3929150620001b7565b5090565b620001d491905b80821115620001b35760008155600101620001be565b90565b613b7680620001e76000396000f3fe608060405260043610610431576000357c010000000000000000000000000000000000000000000000000000000090048063a47d4c0211610245578063dd9d122d11610145578063e7572230116100d8578063f34d4c63116100a7578063f58f85b51161008c578063f58f85b514610c8d578063f9c43bdf14610cad578063fbfa4b7f14610ccd57610431565b8063f34d4c6314610c3d578063f3f0c21814610c6d57610431565b8063e757223014610bc8578063ee95feaf14610be8578063f0d3a9df14610c08578063f2aa821814610c1d57610431565b8063e1ecc79411610114578063e1ecc79414610b33578063e261f1e514610b53578063e4b2611514610b88578063e530c40014610ba857610431565b8063dd9d122d14610a9b578063dec091ad14610ab0578063def936c314610ae3578063e165af8714610b1357610431565b8063bed403c7116101d8578063cee26ed5116101a7578063d71306511161018c578063d713065114610a46578063d7d1bbdb14610a66578063dbd0e1b614610a8657610431565b8063cee26ed514610a06578063d1760e6014610a2657610431565b8063bed403c714610986578063c3c5a547146109a6578063c560b4e5146109c6578063cd392a83146109e657610431565b8063b0a5dcd311610214578063b0a5dcd3146108ef578063b3c8fe851461091f578063b9209e3314610951578063ba49a08c1461097157610431565b8063a47d4c021461085b578063a4a0f6c01461087b578063a6dc41fb1461089b578063ab517074146108bb57610431565b8063601e7c34116103505780637910867b116102e357806393383648116102b2578063989376b411610297578063989376b4146108065780639ae9711e146108265780639dc1bfa91461083b57610431565b806393383648146107d1578063941e2426146107f157610431565b80637910867b1461075157806383546501146107715780638965cde11461079157806389d21354146107b157610431565b806367a09c231161031f57806367a09c23146106cb5780636814800b146106de57806368cfe6ee146106fe5780636cbf6cf81461073157610431565b8063601e7c3414610649578063603daf9a1461066957806363f171431461068b5780636490c7a8146106ab57610431565b80632607aafa116103c857806344c9af281161039757806344c9af28146105c957806348a46bd3146105e95780634daa9dae146106095780634e2cba091461062957610431565b80632607aafa146105475780632a55feec146105745780633410452a146105945780633f9b250a146105a957610431565b8063170f390911610404578063170f3909146104d05780631869a38b146104f25780631a07f76e146105125780631c9afd0f1461053257610431565b806307d56ac01461043657806311ce462c1461046c578063155fec721461048e57806316d9d666146104bb575b600080fd5b34801561044257600080fd5b5061045661045136600461342b565b610ce2565b604051610463919061390f565b60405180910390f35b34801561047857600080fd5b5061048c610487366004613202565b610cfa565b005b34801561049a57600080fd5b506104ae6104a936600461342b565b610e0a565b60405161046391906137f4565b3480156104c757600080fd5b50610456610e29565b3480156104dc57600080fd5b506104e5610e30565b6040516104639190613658565b3480156104fe57600080fd5b506104e561050d36600461342b565b610e3f565b34801561051e57600080fd5b506104ae61052d36600461342b565b610e5a565b34801561053e57600080fd5b50610456610e6f565b34801561055357600080fd5b5061056761056236600461342b565b610e75565b6040516104639190613802565b34801561058057600080fd5b506104ae61058f3660046130ce565b610f17565b3480156105a057600080fd5b50610456610f40565b3480156105b557600080fd5b506105676105c436600461342b565b610f46565b3480156105d557600080fd5b506105676105e436600461342b565b610fb1565b3480156105f557600080fd5b506104ae6106043660046130ce565b61101c565b34801561061557600080fd5b506104ae61062436600461342b565b611068565b34801561063557600080fd5b5061048c610644366004613300565b61107d565b34801561065557600080fd5b506104ae6106643660046130ce565b611284565b34801561067557600080fd5b5061067e611299565b60405161046391906137dc565b34801561069757600080fd5b506104ae6106a63660046130ce565b6112fb565b3480156106b757600080fd5b506104566106c636600461342b565b611310565b61048c6106d93660046130f4565b611325565b3480156106ea57600080fd5b5061048c6106f93660046130ce565b611372565b34801561070a57600080fd5b5061071e6107193660046130ce565b6113e2565b6040516104639796959493929190613813565b34801561073d57600080fd5b506104ae61074c36600461342b565b611793565b34801561075d57600080fd5b506104ae61076c36600461342b565b6117b2565b34801561077d57600080fd5b506104ae61078c36600461342b565b6117d1565b34801561079d57600080fd5b5061048c6107ac3660046130ce565b6117e6565b3480156107bd57600080fd5b506104ae6107cc36600461342b565b61184b565b3480156107dd57600080fd5b5061048c6107ec366004613202565b611860565b3480156107fd57600080fd5b50610456611a5d565b34801561081257600080fd5b506104ae6108213660046130ce565b611a63565b34801561083257600080fd5b50610456611a78565b34801561084757600080fd5b506104e561085636600461342b565b611a7e565b34801561086757600080fd5b506104ae6108763660046130ce565b611a99565b34801561088757600080fd5b5061045661089636600461342b565b611aae565b3480156108a757600080fd5b506104ae6108b63660046130ce565b611ac3565b3480156108c757600080fd5b506108db6108d63660046130ce565b611ad8565b60405161046398979695949392919061373c565b3480156108fb57600080fd5b5061090f61090a36600461342b565b611e64565b604051610463949392919061391d565b34801561092b57600080fd5b5061093f61093a3660046130ce565b611e98565b60405161046396959493929190613895565b34801561095d57600080fd5b506104ae61096c3660046130ce565b6121ae565b34801561097d57600080fd5b506104566121f9565b34801561099257600080fd5b5061048c6109a1366004613449565b6121ff565b3480156109b257600080fd5b506104ae6109c13660046130ce565b61224c565b3480156109d257600080fd5b5061048c6109e136600461312e565b612275565b3480156109f257600080fd5b506104ae610a0136600461342b565b61235c565b348015610a1257600080fd5b506104e5610a2136600461342b565b61237b565b348015610a3257600080fd5b5061048c610a413660046130ce565b6123a2565b348015610a5257600080fd5b50610567610a6136600461342b565b612428565b348015610a7257600080fd5b5061048c610a8136600461342b565b612496565b348015610a9257600080fd5b5061067e6124d3565b348015610aa757600080fd5b50610456612533565b348015610abc57600080fd5b50610ad0610acb3660046130ce565b612539565b60405161046397969594939291906136b2565b348015610aef57600080fd5b50610b03610afe36600461342b565b612832565b6040516104639493929190613952565b348015610b1f57600080fd5b506104ae610b2e3660046130ce565b612970565b348015610b3f57600080fd5b5061048c610b4e3660046130ce565b612999565b348015610b5f57600080fd5b50610b73610b6e36600461342b565b6129fe565b6040516104639998979695949392919061399d565b348015610b9457600080fd5b506104ae610ba33660046130ce565b612c6b565b348015610bb457600080fd5b5061048c610bc3366004613479565b612c80565b348015610bd457600080fd5b50610456610be336600461342b565b612dd6565b348015610bf457600080fd5b506104ae610c033660046130ce565b612deb565b348015610c1457600080fd5b50610456612e14565b348015610c2957600080fd5b506104e5610c3836600461342b565b612e1a565b348015610c4957600080fd5b50610c5d610c5836600461342b565b612e27565b6040516104639493929190613674565b348015610c7957600080fd5b5061048c610c883660046130f4565b612e69565b348015610c9957600080fd5b506104ae610ca83660046130ce565b612f7e565b348015610cb957600080fd5b5061048c610cc836600461342b565b612f93565b348015610cd957600080fd5b50610456612fc0565b6000818152602081905260409020600501545b919050565b3360009081526005602052604090205460ff168015610d2f575033600081815260036020526040902054600160a060020a0316145b610d3857600080fd5b3360009081526003602090815260409091208751610d5e92600190920191890190612fc6565b50336000908152600360208181526040909220600281018890558651610d8c93919092019190870190612fc6565b503360009081526003602090815260409091208451610db392600490920191860190612fc6565b503360009081526003602090815260409091208351610dda92600790920191850190612fc6565b503360009081526003602090815260409091208251610e0192600590920191840190612fc6565b50505050505050565b6000818152600f602052604081205460ff1615610cf557506001610cf5565b6014545b90565b601154600160a060020a031681565b6000908152600d6020526040902054600160a060020a031690565b60106020526000908152604090205460ff1681565b60145481565b6000818152602081815260409182902060070180548351601f6002600019610100600186161502019093169290920491820184900484028101840190945280845260609392830182828015610f0b5780601f10610ee057610100808354040283529160200191610f0b565b820191906000526020600020905b815481529060010190602001808311610eee57829003601f168201915b50505050509050919050565b600160a060020a03811660009081526007602052604081205460ff1615610cf557506001610cf5565b60185490565b6000818152602081815260409182902060080180548351601f6002600019610100600186161502019093169290920491820184900484028101840190945280845260609392830182828015610f0b5780601f10610ee057610100808354040283529160200191610f0b565b6000818152602081815260409182902060030180548351601f6002600019610100600186161502019093169290920491820184900484028101840190945280845260609392830182828015610f0b5780601f10610ee057610100808354040283529160200191610f0b565b600160a060020a03811660009081526009602052604081205460ff168061105b5750600160a060020a0382166000908152600b602052604090205460ff165b15610cf557506001610cf5565b600f6020526000908152604090205460ff1681565b3360009081526005602052604090205460ff161561109a57600080fd5b3360008181526005602090815260408083208054600160ff1991821681179092556007845282852080549091168217905560178054820190558151610100810183528581528084018d81528184018d9052606082018c9052608082018b905260a082018a905260c0820189905260e0820188905295855260038452919093208151815473ffffffffffffffffffffffffffffffffffffffff1916600160a060020a03909116178155935180519194936111599390850192910190612fc6565b50604082015160028201556060820151805161117f916003840191602090910190612fc6565b506080820151805161119b916004840191602090910190612fc6565b5060a082015180516111b7916005840191602090910190612fc6565b5060c082015180516111d3916006840191602090910190612fc6565b5060e082015180516111ef916007840191602090910190612fc6565b5050601380546001810182556000919091527f66de8ffda797e3de9c05e8fc57b3bf0ec28a930d40b0d285d93c06501cf6a09001805473ffffffffffffffffffffffffffffffffffffffff1916339081179091556040517f478f5152d8fc568db3f8de9fb402fd9d98a1a7541ecfe434e59cf574fbfc552492506112739190613666565b60405180910390a150505050505050565b60066020526000908152604090205460ff1681565b606060138054806020026020016040519081016040528092919081815260200182805480156112f157602002820191906000526020600020905b8154600160a060020a031681526001909101906020018083116112d3575b5050505050905090565b60096020526000908152604090205460ff1681565b60009081526020819052604090206001015490565b600081815260106020526040808220805460ff1916600117905551600160a060020a038416913480156108fc02929091818181858888f1935050505015801561136d57600080fd5b505050565b61137b33612970565b61138457600080fd5b600160a060020a0381166000908152600a602052604090819020805460ff19166001179055517f6a6455914f452787eb3985452aceedc1000fb545e394eb3b370e3d08958e0a5b906113d7908390613658565b60405180910390a150565b600160a060020a03811660009081526003602081815260408084206002808201546001808401805486519281161561010002600019011693909304601f810187900487028201870190955284815260609788978897889788979396889690959385019460058101946006820194600783019460049093019289918301828280156114ad5780601f10611482576101008083540402835291602001916114ad565b820191906000526020600020905b81548152906001019060200180831161149057829003601f168201915b5050895460408051602060026001851615610100026000190190941693909304601f8101849004840282018401909252818152959c508b94509250840190508282801561153b5780601f106115105761010080835404028352916020019161153b565b820191906000526020600020905b81548152906001019060200180831161151e57829003601f168201915b5050885460408051602060026001851615610100026000190190941693909304601f8101849004840282018401909252818152959b508a9450925084019050828280156115c95780601f1061159e576101008083540402835291602001916115c9565b820191906000526020600020905b8154815290600101906020018083116115ac57829003601f168201915b5050875460408051602060026001851615610100026000190190941693909304601f8101849004840282018401909252818152959a50899450925084019050828280156116575780601f1061162c57610100808354040283529160200191611657565b820191906000526020600020905b81548152906001019060200180831161163a57829003601f168201915b5050865460408051602060026001851615610100026000190190941693909304601f8101849004840282018401909252818152959950889450925084019050828280156116e55780601f106116ba576101008083540402835291602001916116e5565b820191906000526020600020905b8154815290600101906020018083116116c857829003601f168201915b5050845460408051602060026001851615610100026000190190941693909304601f8101849004840282018401909252818152959850869450925084019050828280156117735780601f1061174857610100808354040283529160200191611773565b820191906000526020600020905b81548152906001019060200180831161175657829003601f168201915b505050505090509650965096509650965096509650919395979092949650565b6000818152600c602052604081205460ff1615610cf557506001610cf5565b6000818152600e602052604081205460ff1615610cf557506001610cf5565b600c6020526000908152604090205460ff1681565b6117ef33612970565b6117f857600080fd5b600160a060020a0381166000908152600b602052604090819020805460ff19166001179055517faf77f8960cf590e245ec8b6d41c193a5dcacad8986ae4eb57ac9e5be7b6af031906113d7908390613658565b600e6020526000908152604090205460ff1681565b3360009081526005602052604090205460ff161561187d57600080fd5b601954600160a060020a0390811660009081526008602090815260408083208054600160ff1991821681179092553380865260058552838620805483168417905560068552838620805490921683179091556016805483019055825160e0810184528181528085018d81528185018d9052606082018c9052608082018b905260a082018a905260c0820189905291865260028552929094208251815473ffffffffffffffffffffffffffffffffffffffff191696169590951785559251805191949361194f9390850192910190612fc6565b506040820151600282015560608201518051611975916003840191602090910190612fc6565b5060808201518051611991916004840191602090910190612fc6565b5060a082015180516119ad916005840191602090910190612fc6565b5060c082015180516119c9916006840191602090910190612fc6565b5050601280546001810182556000919091527fbb8a6a4669ba250d26cd7a459eca9d215f8307e33aebe50379bc5a3617ec344401805473ffffffffffffffffffffffffffffffffffffffff1916339081179091556040517f478f5152d8fc568db3f8de9fb402fd9d98a1a7541ecfe434e59cf574fbfc55249250611a4d9190613666565b60405180910390a1505050505050565b60155481565b600b6020526000908152604090205460ff1681565b60165481565b600d60205260009081526040902054600160a060020a031681565b60076020526000908152604090205460ff1681565b60009081526020819052604090206006015490565b600a6020526000908152604090205460ff1681565b6003602090815260009182526040918290208054600180830180548651600261010094831615949094026000190190911692909204601f8101869004860283018601909652858252600160a060020a03909216949293909290830182828015611b825780601f10611b5757610100808354040283529160200191611b82565b820191906000526020600020905b815481529060010190602001808311611b6557829003601f168201915b505050506002838101546003850180546040805160206001841615610100026000190190931695909504601f810183900483028601830190915280855295969295929450909190830182828015611c1a5780601f10611bef57610100808354040283529160200191611c1a565b820191906000526020600020905b815481529060010190602001808311611bfd57829003601f168201915b5050505060048301805460408051602060026001851615610100026000190190941693909304601f8101849004840282018401909252818152949594935090830182828015611caa5780601f10611c7f57610100808354040283529160200191611caa565b820191906000526020600020905b815481529060010190602001808311611c8d57829003601f168201915b5050505060058301805460408051602060026001851615610100026000190190941693909304601f8101849004840282018401909252818152949594935090830182828015611d3a5780601f10611d0f57610100808354040283529160200191611d3a565b820191906000526020600020905b815481529060010190602001808311611d1d57829003601f168201915b5050505060068301805460408051602060026001851615610100026000190190941693909304601f8101849004840282018401909252818152949594935090830182828015611dca5780601f10611d9f57610100808354040283529160200191611dca565b820191906000526020600020905b815481529060010190602001808311611dad57829003601f168201915b5050505060078301805460408051602060026001851615610100026000190190941693909304601f8101849004840282018401909252818152949594935090830182828015611e5a5780601f10611e2f57610100808354040283529160200191611e5a565b820191906000526020600020905b815481529060010190602001808311611e3d57829003601f168201915b5050505050905088565b60046020526000908152604090208054600182015460028301546003909301549192600160a060020a039182169291169084565b600160a060020a0381166000908152600260208181526040808420808401546001808301805485519281161561010002600019011696909604601f810186900486028201860190945283815260609695879586958695869593946003820193600483019360058401936006019291889190830182828015611f5a5780601f10611f2f57610100808354040283529160200191611f5a565b820191906000526020600020905b815481529060010190602001808311611f3d57829003601f168201915b5050875460408051602060026001851615610100026000190190941693909304601f8101849004840282018401909252818152959b5089945092508401905082828015611fe85780601f10611fbd57610100808354040283529160200191611fe8565b820191906000526020600020905b815481529060010190602001808311611fcb57829003601f168201915b5050865460408051602060026001851615610100026000190190941693909304601f8101849004840282018401909252818152959950889450925084019050828280156120765780601f1061204b57610100808354040283529160200191612076565b820191906000526020600020905b81548152906001019060200180831161205957829003601f168201915b5050855460408051602060026001851615610100026000190190941693909304601f8101849004840282018401909252818152959850879450925084019050828280156121045780601f106120d957610100808354040283529160200191612104565b820191906000526020600020905b8154815290600101906020018083116120e757829003601f168201915b5050845460408051602060026001851615610100026000190190941693909304601f8101849004840282018401909252818152959750869450925084019050828280156121925780601f1061216757610100808354040283529160200191612192565b820191906000526020600020905b81548152906001019060200180831161217557829003601f168201915b5050505050905095509550955095509550955091939550919395565b600160a060020a03811660009081526008602052604081205460ff168061105b5750600160a060020a0382166000908152600a602052604090205460ff1615610cf557506001610cf5565b60175481565b61220833612970565b61221157600080fd5b6000918252600d6020526040909120805473ffffffffffffffffffffffffffffffffffffffff1916600160a060020a03909216919091179055565b600160a060020a03811660009081526005602052604081205460ff1615610cf557506001610cf5565b3360009081526005602052604090205460ff1680156122aa575033600081815260026020526040902054600160a060020a0316145b6122b357600080fd5b33600090815260026020908152604090912086516122d992600190920191880190612fc6565b50336000908152600260208181526040909220908101869055845161230692600390920191860190612fc6565b50336000908152600260209081526040909120835161232d92600490920191850190612fc6565b50336000908152600260209081526040909120825161235492600590920191840190612fc6565b505050505050565b60008181526010602052604081205460ff1615610cf557506001610cf5565b6012818154811061238857fe5b600091825260209091200154600160a060020a0316905081565b6123ab33612970565b6123b457600080fd5b6019805473ffffffffffffffffffffffffffffffffffffffff1916600160a060020a03831690811790915560009081526008602052604090819020805460ff19166001179055517f6a6455914f452787eb3985452aceedc1000fb545e394eb3b370e3d08958e0a5b906113d7908390613658565b600081815260208181526040918290206002908101805484516001821615610100026000190190911692909204601f81018490048402830184019094528382526060939192909190830182828015610f0b5780601f10610ee057610100808354040283529160200191610f0b565b61249f33612deb565b80156124af57506124af336121ae565b6124b857600080fd5b6000908152600e60205260409020805460ff19166001179055565b606060128054806020026020016040519081016040528092919081815260200182805480156112f157602002820191906000526020600020908154600160a060020a031681526001909101906020018083116112d3575050505050905090565b60165490565b6002602081815260009283526040928390208054600180830180548751601f60001994831615610100029490940190911696909604918201859004850286018501909652808552600160a060020a03909116949193928301828280156125e05780601f106125b5576101008083540402835291602001916125e0565b820191906000526020600020905b8154815290600101906020018083116125c357829003601f168201915b505050506002838101546003850180546040805160206001841615610100026000190190931695909504601f8101839004830286018301909152808552959692959294509091908301828280156126785780601f1061264d57610100808354040283529160200191612678565b820191906000526020600020905b81548152906001019060200180831161265b57829003601f168201915b5050505060048301805460408051602060026001851615610100026000190190941693909304601f81018490048402820184019092528181529495949350908301828280156127085780601f106126dd57610100808354040283529160200191612708565b820191906000526020600020905b8154815290600101906020018083116126eb57829003601f168201915b5050505060058301805460408051602060026001851615610100026000190190941693909304601f81018490048402820184019092528181529495949350908301828280156127985780601f1061276d57610100808354040283529160200191612798565b820191906000526020600020905b81548152906001019060200180831161277b57829003601f168201915b5050505060068301805460408051602060026001851615610100026000190190941693909304601f81018490048402820184019092528181529495949350908301828280156128285780601f106127fd57610100808354040283529160200191612828565b820191906000526020600020905b81548152906001019060200180831161280b57829003601f168201915b5050505050905087565b600160208181526000928352604092839020805481840180548651600296821615610100026000190190911695909504601f810185900485028601850190965285855290949193929091908301828280156128ce5780601f106128a3576101008083540402835291602001916128ce565b820191906000526020600020905b8154815290600101906020018083116128b157829003601f168201915b505050506002838101546003850180546040805160206001841615610100026000190190931695909504601f8101839004830286018301909152808552959692959294509091908301828280156129665780601f1061293b57610100808354040283529160200191612966565b820191906000526020600020905b81548152906001019060200180831161294957829003601f168201915b5050505050905084565b601154600090600160a060020a038381169116141561299157506001610cf5565b506000610cf5565b6129a233612970565b6129ab57600080fd5b600160a060020a03811660009081526009602052604090819020805460ff19166001179055517faf77f8960cf590e245ec8b6d41c193a5dcacad8986ae4eb57ac9e5be7b6af031906113d7908390613658565b6000602081815291815260409081902080546001808301546002808501805487519481161561010002600019011691909104601f81018890048802840188019096528583529295909491929190830182828015612a9c5780601f10612a7157610100808354040283529160200191612a9c565b820191906000526020600020905b815481529060010190602001808311612a7f57829003601f168201915b5050505060038301805460408051602060026001851615610100026000190190941693909304601f8101849004840282018401909252818152949594935090830182828015612b2c5780601f10612b0157610100808354040283529160200191612b2c565b820191906000526020600020905b815481529060010190602001808311612b0f57829003601f168201915b505050600484015460058501546006860154600787018054604080516020601f60026000196101006001881615020190951694909404938401819004810282018101909252828152989995989497509295509091830182828015612bd15780601f10612ba657610100808354040283529160200191612bd1565b820191906000526020600020905b815481529060010190602001808311612bb457829003601f168201915b5050505060088301805460408051602060026001851615610100026000190190941693909304601f8101849004840282018401909252818152949594935090830182828015612c615780601f10612c3657610100808354040283529160200191612c61565b820191906000526020600020905b815481529060010190602001808311612c4457829003601f168201915b5050505050905089565b60086020526000908152604090205460ff1681565b612c8933612deb565b8015612c995750612c99336121ae565b612ca257600080fd5b60148054600190810191829055604080516101208101825283815260208082018d81528284018d8152606084018d9052608084018c905260a084018b905260c084018a905260e0840189905261010084018890526000968752868352939095208251815594519385019390935590518051919392612d2892600285019290910190612fc6565b5060608201518051612d44916003840191602090910190612fc6565b506080820151600482015560a0820151600582015560c0820151600682015560e08201518051612d7e916007840191602090910190612fc6565b506101008201518051612d9b916008840191602090910190612fc6565b50506014546000908152600d60205260409020805473ffffffffffffffffffffffffffffffffffffffff191633179055505050505050505050565b60009081526020819052604090206004015490565b600160a060020a03811660009081526006602052604081205460ff1615610cf557506001610cf5565b60175490565b6013818154811061238857fe5b600090815260046020908152604080832060018101546002820154600390920154600e9094529190932054600160a060020a0391821694919093169260ff1690565b612e7233610f17565b8015612e825750612e82336121ae565b612e8b57600080fd5b60188054600190810180835560408051608081018252828152600160a060020a03808816602080840191825233848601908152606085018a8152600097885260048352868820955186559251858901805491861673ffffffffffffffffffffffffffffffffffffffff199283161790559051600286018054919095169116179092555160039092019190915584548352600e8152818320805460ff1990811690915594548352600f9052908190208054909316909117909155517fc67eb70629da758128cec22f7e36ad0676066ad4df9b66e8ba58a30c1ab4075b90612f72908490613658565b60405180910390a15050565b60056020526000908152604090205460ff1681565b612f9c33612970565b612fa557600080fd5b6000908152600c60205260409020805460ff19166001179055565b60185481565b828054600181600116156101000203166002900490600052602060002090601f016020900481019282601f1061300757805160ff1916838001178555613034565b82800160010185558215613034579182015b82811115613034578251825591602001919060010190613019565b50613040929150613044565b5090565b610e2d91905b80821115613040576000815560010161304a565b803561306981613b13565b92915050565b600082601f83011261308057600080fd5b813561309361308e82613a65565b613a3e565b915080825260208301602083018583830111156130af57600080fd5b6130ba838284613acd565b50505092915050565b803561306981613b2a565b6000602082840312156130e057600080fd5b60006130ec848461305e565b949350505050565b6000806040838503121561310757600080fd5b6000613113858561305e565b9250506020613124858286016130c3565b9150509250929050565b600080600080600060a0868803121561314657600080fd5b853567ffffffffffffffff81111561315d57600080fd5b6131698882890161306f565b955050602061317a888289016130c3565b945050604086013567ffffffffffffffff81111561319757600080fd5b6131a38882890161306f565b935050606086013567ffffffffffffffff8111156131c057600080fd5b6131cc8882890161306f565b925050608086013567ffffffffffffffff8111156131e957600080fd5b6131f58882890161306f565b9150509295509295909350565b60008060008060008060c0878903121561321b57600080fd5b863567ffffffffffffffff81111561323257600080fd5b61323e89828a0161306f565b965050602061324f89828a016130c3565b955050604087013567ffffffffffffffff81111561326c57600080fd5b61327889828a0161306f565b945050606087013567ffffffffffffffff81111561329557600080fd5b6132a189828a0161306f565b935050608087013567ffffffffffffffff8111156132be57600080fd5b6132ca89828a0161306f565b92505060a087013567ffffffffffffffff8111156132e757600080fd5b6132f389828a0161306f565b9150509295509295509295565b600080600080600080600060e0888a03121561331b57600080fd5b873567ffffffffffffffff81111561333257600080fd5b61333e8a828b0161306f565b975050602061334f8a828b016130c3565b965050604088013567ffffffffffffffff81111561336c57600080fd5b6133788a828b0161306f565b955050606088013567ffffffffffffffff81111561339557600080fd5b6133a18a828b0161306f565b945050608088013567ffffffffffffffff8111156133be57600080fd5b6133ca8a828b0161306f565b93505060a088013567ffffffffffffffff8111156133e757600080fd5b6133f38a828b0161306f565b92505060c088013567ffffffffffffffff81111561341057600080fd5b61341c8a828b0161306f565b91505092959891949750929550565b60006020828403121561343d57600080fd5b60006130ec84846130c3565b6000806040838503121561345c57600080fd5b600061346885856130c3565b92505060206131248582860161305e565b600080600080600080600080610100898b03121561349657600080fd5b60006134a28b8b6130c3565b985050602089013567ffffffffffffffff8111156134bf57600080fd5b6134cb8b828c0161306f565b975050604089013567ffffffffffffffff8111156134e857600080fd5b6134f48b828c0161306f565b96505060606135058b828c016130c3565b95505060806135168b828c016130c3565b94505060a06135278b828c016130c3565b93505060c089013567ffffffffffffffff81111561354457600080fd5b6135508b828c0161306f565b92505060e089013567ffffffffffffffff81111561356d57600080fd5b6135798b828c0161306f565b9150509295985092959890939650565b600061359583836135ac565b505060200190565b6135a681613abc565b82525050565b6135a681613aa0565b60006135c082613a93565b6135ca8185613a97565b93506135d583613a8d565b8060005b838110156136035781516135ed8882613589565b97506135f883613a8d565b9250506001016135d9565b509495945050505050565b6135a681613aab565b600061362282613a93565b61362c8185613a97565b935061363c818560208601613ad9565b61364581613b09565b9093019392505050565b6135a681610e2d565b6020810161306982846135ac565b60208101613069828461359d565b6080810161368282876135ac565b61368f60208301866135ac565b61369c604083018561364f565b6136a9606083018461360e565b95945050505050565b60e081016136c0828a6135ac565b81810360208301526136d28189613617565b90506136e1604083018861364f565b81810360608301526136f38187613617565b905081810360808301526137078186613617565b905081810360a083015261371b8185613617565b905081810360c083015261372f8184613617565b9998505050505050505050565b610100810161374b828b6135ac565b818103602083015261375d818a613617565b905061376c604083018961364f565b818103606083015261377e8188613617565b905081810360808301526137928187613617565b905081810360a08301526137a68186613617565b905081810360c08301526137ba8185613617565b905081810360e08301526137ce8184613617565b9a9950505050505050505050565b602080825281016137ed81846135b5565b9392505050565b60208101613069828461360e565b602080825281016137ed8184613617565b60e08082528101613824818a613617565b905081810360208301526138388189613617565b9050818103604083015261384c8188613617565b905081810360608301526138608187613617565b905081810360808301526138748186613617565b905061388360a083018561364f565b81810360c083015261372f8184613617565b60c080825281016138a68189613617565b90506138b5602083018861364f565b81810360408301526138c78187613617565b905081810360608301526138db8186613617565b905081810360808301526138ef8185613617565b905081810360a08301526139038184613617565b98975050505050505050565b60208101613069828461364f565b6080810161392b828761364f565b61393860208301866135ac565b61394560408301856135ac565b6136a9606083018461364f565b60808101613960828761364f565b81810360208301526139728186613617565b9050613981604083018561364f565b81810360608301526139938184613617565b9695505050505050565b61012081016139ac828c61364f565b6139b9602083018b61364f565b81810360408301526139cb818a613617565b905081810360608301526139df8189613617565b90506139ee608083018861364f565b6139fb60a083018761364f565b613a0860c083018661364f565b81810360e0830152613a1a8185613617565b9050818103610100830152613a2f8184613617565b9b9a5050505050505050505050565b60405181810167ffffffffffffffff81118282101715613a5d57600080fd5b604052919050565b600067ffffffffffffffff821115613a7c57600080fd5b506020601f91909101601f19160190565b60200190565b5190565b90815260200190565b600061306982613ab0565b151590565b600160a060020a031690565b600061306982600061306982613aa0565b82818337506000910152565b60005b83811015613af4578181015183820152602001613adc565b83811115613b03576000848401525b50505050565b601f01601f191690565b613b1c81613aa0565b8114613b2757600080fd5b50565b613b1c81610e2d56fea365627a7a7231582064f2b6387eb807bb86db58f87500fb39b51083ffc6ffd50f7df701fbdd02eb316c6578706572696d656e74616cf564736f6c63430005100040",
  "source": "pragma solidity >= 0.5.2;\npragma experimental ABIEncoderV2;\ncontract Land {\n    struct Landreg {\n        uint id;\n        uint area;\n        string city;\n        string state;\n        uint landPrice;\n        uint propertyPID;\n        uint physicalSurveyNumber;\n        string ipfsHash;\n        string document;\n    }\n\n    struct Buyer{\n        address id;\n        string name;\n        uint age;\n        string city;\n        string aadharNumber;\n        string panNumber;\n        string document;\n        string email;\n    }\n\n    struct Seller{\n        address id;\n        string name;\n        uint age;\n        string aadharNumber;\n        string panNumber;\n        string landsOwned;\n        string document;\n    }\n\n    struct LandInspector {\n        uint id;\n        string name;\n        uint age;\n        string designation;\n    }\n\n    struct LandRequest{\n        uint reqId;\n        address sellerId;\n        address buyerId;\n        uint landId;\n        // bool requestStatus;\n        // bool requested;\n    }\n\n    //key value pairs\n    mapping(uint => Landreg) public lands;\n    mapping(uint => LandInspector) public InspectorMapping;\n    mapping(address => Seller) public SellerMapping;\n    mapping(address => Buyer) public BuyerMapping;\n    mapping(uint => LandRequest) public RequestsMapping;\n\n    mapping(address => bool) public RegisteredAddressMapping;\n    mapping(address => bool) public RegisteredSellerMapping;\n    mapping(address => bool) public RegisteredBuyerMapping;\n    mapping(address => bool) public SellerVerification;\n    mapping(address => bool) public SellerRejection;\n    mapping(address => bool) public BuyerVerification;\n    mapping(address => bool) public BuyerRejection;\n    mapping(uint => bool) public LandVerification;\n    mapping(uint => address) public LandOwner;\n    mapping(uint => bool) public RequestStatus;\n    mapping(uint => bool) public RequestedLands;\n    mapping(uint => bool) public PaymentReceived;\n\n    address public Land_Inspector;\n    address[] public sellers;\n    address[] public buyers;\n\n    uint public landsCount;\n    uint public inspectorsCount;\n    uint public sellersCount;\n    uint public buyersCount;\n    uint public requestsCount;\n\n    event Registration(address _registrationId);\n    event AddingLand(uint indexed _landId);\n    event Landrequested(address _sellerId);\n    event requestApproved(address _buyerId);\n    event Verified(address _id);\n    event Rejected(address _id);\n\n    constructor() public{\n        Land_Inspector = msg.sender ;\n        addLandInspector(\"Inspector 1\", 45, \"Tehsil Manager\");\n    }\n\n    function addLandInspector(string memory _name, uint _age, string memory _designation) private {\n        inspectorsCount++;\n        InspectorMapping[inspectorsCount] = LandInspector(inspectorsCount, _name, _age, _designation);\n    }\n\n    function getLandsCount() public view returns (uint) {\n        return landsCount;\n    }\n\n    function getBuyersCount() public view returns (uint) {\n        return buyersCount;\n    }\n\n    function getSellersCount() public view returns (uint) {\n        return sellersCount;\n    }\n\n    function getRequestsCount() public view returns (uint) {\n        return requestsCount;\n    }\n    function getArea(uint i) public view returns (uint) {\n        return lands[i].area;\n    }\n    function getCity(uint i) public view returns (string memory) {\n        return lands[i].city;\n    }\n     function getState(uint i) public view returns (string memory) {\n        return lands[i].state;\n    }\n    // function getStatus(uint i) public view returns (bool) {\n    //     return lands[i].verificationStatus;\n    // }\n    function getPrice(uint i) public view returns (uint) {\n        return lands[i].landPrice;\n    }\n    function getPID(uint i) public view returns (uint) {\n        return lands[i].propertyPID;\n    }\n    function getSurveyNumber(uint i) public view returns (uint) {\n        return lands[i].physicalSurveyNumber;\n    }\n    function getImage(uint i) public view returns (string memory) {\n        return lands[i].ipfsHash;\n    }\n    function getDocument(uint i) public view returns (string memory) {\n        return lands[i].document;\n    }\n    \n    function getLandOwner(uint id) public view returns (address) {\n        return LandOwner[id];\n    }\n    address value;\n\n    function verifySeller(address _sellerId) public{\n        require(isLandInspector(msg.sender));\n        value = _sellerId;\n        SellerVerification[_sellerId] = true;\n        emit Verified(_sellerId);\n    }\n\n    function rejectSeller(address _sellerId) public{\n        require(isLandInspector(msg.sender));\n\n        SellerRejection[_sellerId] = true;\n        emit Rejected(_sellerId);\n    }\n\n    function verifyBuyer(address _buyerId) public{\n        require(isLandInspector(msg.sender));\n\n        BuyerVerification[_buyerId] = true;\n        emit Verified(_buyerId);\n    }\n\n    function rejectBuyer(address _buyerId) public{\n        require(isLandInspector(msg.sender));\n\n        BuyerRejection[_buyerId] = true;\n        emit Rejected(_buyerId);\n    }\n    \n    function verifyLand(uint _landId) public{\n        require(isLandInspector(msg.sender));\n\n        LandVerification[_landId] = true;\n    }\n\n    function isLandVerified(uint _id) public view returns (bool) {\n        if(LandVerification[_id]){\n            return true;\n        }\n    }\n\n    function isVerified(address _id) public view returns (bool) {\n        if(SellerVerification[_id] || BuyerVerification[_id]){\n            return true;\n        }\n    }\n\n    function isRejected(address _id) public view returns (bool) {\n        if(SellerRejection[_id] || BuyerRejection[_id]){\n            return true;\n        }\n    }\n\n    function isSeller(address _id) public view returns (bool) {\n        if(RegisteredSellerMapping[_id]){\n            return true;\n        }\n    }\n\n    function isLandInspector(address _id) public view returns (bool) {\n        if(Land_Inspector == _id){\n            return true;\n        }else{\n            return false;\n        }\n    }\n\n    function isBuyer(address _id) public view returns (bool) {\n        if(RegisteredBuyerMapping[_id]){\n            return true;\n        }\n    }\n    function isRegistered(address _id) public view returns (bool) {\n        if(RegisteredAddressMapping[_id]){\n            return true;\n        }\n    }\n\n    function addLand(uint _area, string memory _city,string memory _state, uint landPrice, uint _propertyPID,uint _surveyNum,string memory _ipfsHash, string memory _document) public {\n        require((isSeller(msg.sender)) && (isVerified(msg.sender)));\n        landsCount++;\n        lands[landsCount] = Landreg(landsCount, _area, _city, _state, landPrice,_propertyPID, _surveyNum, _ipfsHash, _document);\n        LandOwner[landsCount] = msg.sender;\n        // emit AddingLand(landsCount);\n    }\n\n    //registration of seller\n    function registerSeller(address _sellerId, string memory _name, uint _age, string memory _aadharNumber, string memory _panNumber, string memory _landsOwned, string memory _document) public {\n        //require that Seller is not already registered\n        require(!RegisteredAddressMapping[msg.sender]);\n        SellerVerification[value] = true;\n        RegisteredAddressMapping[msg.sender] = true;\n        RegisteredSellerMapping[msg.sender] = true ;\n        sellersCount++;\n        SellerMapping[msg.sender] = Seller(msg.sender, _name, _age, _aadharNumber,_panNumber, _landsOwned, _document);\n        sellers.push(msg.sender);\n        emit Registration(msg.sender);\n    }\n\n    function updateSeller(string memory _name, uint _age, string memory _aadharNumber, string memory _panNumber, string memory _landsOwned) public {\n        //require that Seller is already registered\n        require(RegisteredAddressMapping[msg.sender] && (SellerMapping[msg.sender].id == msg.sender));\n\n        SellerMapping[msg.sender].name = _name;\n        SellerMapping[msg.sender].age = _age;\n        SellerMapping[msg.sender].aadharNumber = _aadharNumber;\n        SellerMapping[msg.sender].panNumber = _panNumber;\n        SellerMapping[msg.sender].landsOwned = _landsOwned;\n\n    }\n\n    function getSeller() public view returns( address [] memory ){\n        return(sellers);\n    }\n\n    function getSellerDetails(address i) public view returns (string memory, uint, string memory, string memory, string memory, string memory) {\n        return (SellerMapping[i].name, SellerMapping[i].age, SellerMapping[i].aadharNumber, SellerMapping[i].panNumber, SellerMapping[i].landsOwned, SellerMapping[i].document);\n    }\n\n    function registerBuyer(string memory _name, uint _age, string memory _city, string memory _aadharNumber, string memory _panNumber, string memory _document, string memory _email) public {\n        //require that Buyer is not already registered\n        require(!RegisteredAddressMapping[msg.sender]);\n\n        RegisteredAddressMapping[msg.sender] = true;\n        RegisteredBuyerMapping[msg.sender] = true ;\n        buyersCount++;\n        BuyerMapping[msg.sender] = Buyer(msg.sender, _name, _age, _city, _aadharNumber, _panNumber, _document, _email);\n        buyers.push(msg.sender);\n\n        emit Registration(msg.sender);\n    }\n\n    function updateBuyer(string memory _name,uint _age, string memory _city,string memory _aadharNumber, string memory _email, string memory _panNumber) public {\n        //require that Buyer is already registered\n        require(RegisteredAddressMapping[msg.sender] && (BuyerMapping[msg.sender].id == msg.sender));\n\n        BuyerMapping[msg.sender].name = _name;\n        BuyerMapping[msg.sender].age = _age;\n        BuyerMapping[msg.sender].city = _city;\n        BuyerMapping[msg.sender].aadharNumber = _aadharNumber;\n        BuyerMapping[msg.sender].email = _email;\n        BuyerMapping[msg.sender].panNumber = _panNumber;\n        \n    }\n\n    function getBuyer() public view returns( address [] memory ){\n        return(buyers);\n    }\n\n    function getBuyerDetails(address i) public view returns ( string memory,string memory, string memory, string memory, string memory, uint, string memory) {\n        return (BuyerMapping[i].name,BuyerMapping[i].city , BuyerMapping[i].panNumber, BuyerMapping[i].document, BuyerMapping[i].email, BuyerMapping[i].age, BuyerMapping[i].aadharNumber);\n    }\n\n\n    function requestLand(address _sellerId, uint _landId) public{\n        require(isBuyer(msg.sender) && isVerified(msg.sender));\n        \n        requestsCount++;\n        RequestsMapping[requestsCount] = LandRequest(requestsCount, _sellerId, msg.sender, _landId);\n        RequestStatus[requestsCount] = false;\n        RequestedLands[requestsCount] = true;\n\n        emit Landrequested(_sellerId);\n    }\n\n    function getRequestDetails (uint i) public view returns (address, address, uint, bool) {\n        return(RequestsMapping[i].sellerId, RequestsMapping[i].buyerId, RequestsMapping[i].landId, RequestStatus[i]);\n    }\n\n    function isRequested(uint _id) public view returns (bool) {\n        if(RequestedLands[_id]){\n            return true;\n        }\n    }\n\n    function isApproved(uint _id) public view returns (bool) {\n        if(RequestStatus[_id]){\n            return true;\n        }\n    }\n\n    function approveRequest(uint _reqId) public {\n        require((isSeller(msg.sender)) && (isVerified(msg.sender)));\n       \n        RequestStatus[_reqId] = true;\n\n    }\n\n    function LandOwnershipTransfer(uint _landId, address _newOwner) public{\n        require(isLandInspector(msg.sender));\n\n        LandOwner[_landId] = _newOwner;\n    }\n\n    function isPaid(uint _landId) public view returns (bool) {\n        if(PaymentReceived[_landId]){\n            return true;\n        }\n    }\n\n    function payment(address payable _receiver, uint _landId) public payable {\n        PaymentReceived[_landId] = true;\n        _receiver.transfer(msg.value);\n    }\n\n\n\n}\n",
  "sourcePath": "C:\\Users\\DELL\\Downloads\\Compressed\\Land-Registration-with-Blockchain-master\\contracts\\Land.sol",
  "compiler": {
    "name": "solc",
    "version": "0.5.16+commit.9c3226ce.Emscripten.clang"
  },
  "schemaVersion": "3.4.4",
  "updatedAt": "2022-05-24T18:09:50.837Z",
  "networkType": "ethereum",
  "devdoc": {
    "methods": {}
  },
  "userdoc": {
    "methods": {}
  }
}